:100000000C9463000C948B000C948B000C948B006C
:100010000C948B000C948B000C948B000C948B0034
:100020000C948B000C948B000C948B000C948B0024
:100030000C948B000C94E5090C948B000C948B00B1
:100040000C941D0B0C948B000C94E20C0C94290D59
:100050000C948B000C948B000C948B000C948B00F4
:100060000C948B000C948B000000000024002700EF
:100070002A0000000000250028002B0000000000DE
:1000800023002600290004040404040404040202DA
:100090000202020203030303030301020408102007
:1000A0004080010204081020010204081020000012
:1000B0000007000201000003040600000000000029
:1000C00000004F01A00E11241FBECFEFD8E0DEBF0D
:1000D000CDBF12E0A0E0B1E0E6EAF3E202C0059095
:1000E0000D92A23BB107D9F713E0A2EBB2E001C039
:1000F0001D92AA3DB107E1F710E0C6ECD0E004C0C4
:100100002297FE010E949611C23CD107C9F70E94B6
:10011000F00E0C94D1110C940000A0E0B0E0E3E9E3
:10012000F0E00C94A211EC01A880B980CA80DB80B9
:10013000A114B104C104D10441F484E2A82E89EDD4
:10014000B82E8BE5C82E87E0D82EC601B5012DE16B
:1001500033EF41E050E00E94651127EA31E440E0CE
:1001600050E00E9411117B018C01C601B5012DE107
:1001700033EF41E050E00E946511CA01B9012CEE55
:1001800034EF4FEF5FEF0E9411116E0D7F1D801F46
:10019000911F97FF04C06150704080409048688371
:1001A00079838A839B839B01AC015F77B901CA0184
:1001B000CDB7DEB7EAE00C94BE110E948D00089521
:1001C0008CE992E00E948D00089560939C027093E8
:1001D0009D0280939E0290939F020895FC018827C0
:1001E0009927E89421912032E9F3293010F02E303C
:1001F000C8F32B3241F02D3239F4689404C00E94C8
:100200004701820F911D219120532A30C0F31EF423
:10021000909581959F4F0895FB01DC018D91019090
:1002200080190110D9F3990B0895009731F4DA0180
:100230008D919C91009709F40EC0DC01FB013D916A
:100240002191222319F03217C9F3FACF332331F465
:10025000DA011D921C928827992708951197AF9370
:10026000BF93FB013D912191321771F4332321F4A7
:1002700088279927119702C01E921196FA01A1931F
:10028000B0839F918F910895222369F7EACF7AE096
:10029000979F902D879F802D910D1124089582EBBB
:1002A00092E00E942E090895CF93DF931092FF02EF
:1002B00010920003109201031092020381E090E07B
:1002C000A0E0B0E08093030390930403A0930503A0
:1002D000B0930603C0E0D0E089E293E0BE01409114
:1002E00003030E94110B2091FF0230910003409103
:1002F0000103509102038091030390910403A091A4
:100300000503B09106032430310541055105A1F4E0
:100310001092FF0210920003109201031092020348
:100320000196A11DB11D8093030390930403A09334
:100330000503B09306031AC080389105A105B105E5
:1003400049F41092030310920403109205031092D3
:1003500006030CC02F5F3F4F4F4F5F4F2093FF02AC
:1003600030930003409301035093020365E070E073
:1003700080E090E00E94730B219684E0C030D807A3
:1003800009F0AACF6AE070E080E090E00E94730B71
:1003900089E293E060E074E042E30E94110B8BEB92
:1003A00093E060E071E00E947510DF91CF910895B5
:1003B00010921903109214038BEB93E06BE071E041
:1003C0000E94751008958091A002823030F08BEB6E
:1003D00093E062E271E00E94751008950F931F93FD
:1003E00002EB12E0C8010E94D00980931103C801FA
:1003F0000E94D0098093120381E0809319038BEB54
:1004000093E060E371E00E9475101F910F910895D1
:100410000F931F9382EB92E00E94D009482F8093A4
:100420001B0380931A0389E293E060E074E00E946A
:10043000110B0BEB13E0C80166E471E00E9472102F
:10044000C80160911A034AE050E00E94E20F1F9138
:100450000F91089582EB92E00E94D009982F80932B
:10046000A1028150833088F49093A0028BEB93E03B
:100470006BE571E00E9472108BEB93E06091A0023B
:100480004AE050E00E94E20F08958091A00282307D
:10049000D0F08BEB93E06CE671E00E9475108BEB73
:1004A00093E068E771E00E9475108BEB93E068E9D8
:1004B00071E00E9472108BEB93E06091A1024AE020
:1004C00050E00E94E20F08951F93CF93DF931092A4
:1004D000FF02109200031092010310920203C0E089
:1004E000D0E089E293E0BE010E940A0B182F8BEB4B
:1004F00093E0BE014AE050E00E9440108BEB93E095
:1005000064EA71E00E9472108BEB93E0612F70E05F
:100510004AE050E00E9440108BEB93E066EA71E005
:100520000E9472108091FF0290910003A09101033C
:10053000B091020384309105A105B10569F41092D0
:10054000FF021092000310920103109202038BEB42
:1005500093E00E94290F0BC00196A11DB11D80934D
:10056000FF0290930003A0930103B093020365E0A0
:1005700070E080E090E00E94730B219684E0C1302F
:10058000D80709F0AECFDF91CF911F91089582EB8C
:1005900092E00E94D0098093150382EB92E00E94C2
:1005A000D009282F80930D0390911503892F815036
:1005B000833008F071C0822F815087FD4EC091308A
:1005C00069F480930703882311F483E01DC06091D0
:1005D0001A0370E0680F711D83E01FC0923069F448
:1005E00080930703882311F485E00EC060911A03FD
:1005F00070E0680F711D85E010C0933081F4809326
:100600000703882321F486E060E070E006C0609173
:100610001A0370E0680F711D86E00E94070C80913C
:10062000A002833009F056C08BEB93E068EA71E0DA
:100630000E9472108BEB93E06CEA71E00E947210E2
:100640008BEB93E0609115034AE050E00E94E20FCB
:100650008BEB93E065EB71E014C08091A0028230D7
:10066000C8F18BEB93E06CE671E00E9475108BEBA8
:1006700093E06CEB71E00E9475108BEB93E068EDFA
:1006800071E00E9472108BEB93E060910D034AE0E1
:1006900050E00E94E20F08958091A0028230D0F0D5
:1006A0008BEB93E06CE671E00E9475108BEB93E0AE
:1006B00064EE71E00E9475108BEB93E068E971E0E5
:1006C0000E9472108BEB93E0609115034AE050E0BA
:1006D0000E94E20F0895AF92BF92CF92DF92EF9205
:1006E000FF920F931F931092190382EB92E00E94E6
:1006F000D009982F809313038150873C08F0FAC0EB
:1007000065E0969FB001112465506093180389E25B
:1007100093E070E00E940A0B80930D036091180330
:1007200070E06F5F7F4F89E293E00E940A0B809335
:100730000E036091180370E06E5F7F4F89E293E0D3
:100740000E940A0B80930F036091180370E06D5FA5
:100750007F4F89E293E00E940A0B809310038091FF
:100760000D03815080930703882321F483E060E028
:1007700070E006C060911A0370E0680F711D83E09D
:100780000E94070C80910E038150809308038823F8
:1007900021F485E060E070E006C060911A0370E02B
:1007A000680F711D85E00E94070C80910F03815036
:1007B00080930903882321F486E060E070E006C09E
:1007C00060911A0370E0680F711D86E00E94070CAB
:1007D00060911003615060930A03662331F484E250
:1007E00093E069E04FEF53E038C06F3731F484E2B3
:1007F00093E069E040E050E030C000D000D070E00D
:1008000080E090E020E432E44FE050E0EDB7FEB746
:10081000218332834383548321E030E040E050E081
:10082000FEE7EF2EF12C012D112DE0EAAE2EE6E8C9
:10083000BE2EE1E0CE2ED12C0E948810AB01BC016F
:100840000F900F900F900F9084E293E00E940C0A9B
:1008500084E293E069E040E052E00E94830A8091E4
:10086000A002833009F046C08BEB93E060E072E0B9
:100870000E9472108BEB93E0609113034AE050E00A
:100880000E94D00F8BEB93E066E072E00E94721042
:100890008BEB93E0609107034AE050E00E94D00F99
:1008A0008BEB93E06CE072E00E9472108BEB93E0B4
:1008B000609108034AE050E00E94D00F8BEB93E078
:1008C00062E172E00E9472108BEB93E06091090389
:1008D0004AE050E00E94D00F8BEB93E068E172E0B9
:1008E0000E9472108BEB93E0609110034AE050E09D
:1008F0000E94E20F1F910F91FF90EF90DF90CF9039
:10090000BF90AF9008951092190382EB92E00E947D
:10091000D009982F809313038150873C08F07BC047
:1009200065E0969FB001112465506093180389E239
:1009300093E070E00E940A0B80930D03609118030E
:1009400070E06F5F7F4F89E293E00E940A0B809313
:100950000E036091180370E06E5F7F4F89E293E0B1
:100960000E940A0B80930F036091180370E06D5F83
:100970007F4F89E293E00E940A0B809310038BEB78
:1009800093E060E072E00E9472108BEB93E0609164
:1009900013034AE050E00E94D00F8BEB93E066E037
:1009A00072E00E9472108BEB93E060910D034AE0BD
:1009B00050E00E94D00F8BEB93E06CE072E00E945D
:1009C00072108BEB93E060910E034AE050E00E94BE
:1009D000D00F8BEB93E062E172E00E9472108BEB20
:1009E00093E060910F034AE050E00E94D00F8BEB40
:1009F00093E068E172E00E9472108BEB93E06091EB
:100A000010034AE050E00E94D00F8BEB93E066EABF
:100A100071E00E947510089582EB92E00E94D00967
:100A20008093130382EB92E00E94D00980930D0320
:100A300082EB92E00E94D00980930E0382EB92E059
:100A40000E94D00980930F0382EB92E00E94D009AC
:100A5000982F8093100330911303832F8150883C8B
:100A600018F081E08093170340910D03842F81508B
:100A700087FF03C081E08093170320910E03822F2C
:100A8000815087FF03C081E08093170380910F039B
:100A9000882311F0213818F081E0809317039150DA
:100AA00097FF03C081E08093170380911703882389
:100AB00009F079C065E0369FB0011124655060935C
:100AC000180389E293E070E00E94110B6091180313
:100AD00070E06F5F7F4F89E293E040910E030E94C8
:100AE000110B6091180370E06E5F7F4F89E293E015
:100AF00040910F030E94110B6091180370E06D5F2D
:100B00007F4F89E293E0409110030E94110B809186
:100B1000A002833009F09AC08BEB93E061E272E0AF
:100B20000E9475108BEB93E0609113034AE050E054
:100B30000E94D00F8BEB93E064E272E00E9472108F
:100B40008BEB93E060910D034AE050E00E94D00FE0
:100B50008BEB93E064E272E00E9472108BEB93E007
:100B600060910E034AE050E00E94D00F8BEB93E0BF
:100B700064E272E00E9472108BEB93E060910F03CD
:100B80004AE050E00E94D00F8BEB93E064E272E009
:100B90000E9472108BEB93E0609110034AE050E0EA
:100BA0000E94E20F08958091A002823008F44CC0A8
:100BB0008BEB93E066E272E00E9475108BEB93E0A2
:100BC0006CE272E00E9472108BEB93E06091130371
:100BD0004AE050E00E94D00F8BEB93E064E272E0B9
:100BE0000E9472108BEB93E060910D034AE050E09D
:100BF0000E94D00F8BEB93E064E272E00E947210CF
:100C00008BEB93E060910E034AE050E00E94D00F1E
:100C10008BEB93E064E272E00E9472108BEB93E046
:100C200060910F034AE050E00E94D00F8BEB93E0FD
:100C300064E272E00E9472108BEB93E0609110030B
:100C40004AE050E00E94E20F109217030895AF921D
:100C5000BF92CF92DF92EF92FF920F931F9382EB9E
:100C600092E00E94D00980931003682F615067FDC5
:100C700063C060930A03662331F484E293E069E081
:100C80004FEF53E038C06F3731F484E293E069E00E
:100C900040E050E030C000D000D070E080E090E054
:100CA00020E432E44FE050E0EDB7FEB72183328319
:100CB0004383548321E030E040E050E0BEE7EB2E78
:100CC000F12C012D112DA0EAAA2EA6E8BA2EA1E042
:100CD000CA2ED12C0E948810AB01BC010F900F903E
:100CE0000F900F9084E293E00E940C0A84E293E05C
:100CF00069E040E052E00E94830A8091A0028330C4
:100D0000E1F58BEB93E061E272E00E9472108BEBF5
:100D100093E064E272E00E9472108BEB93E069E36F
:100D200072E00E9472108BEB93E060910A034AE03C
:100D300050E00E94E20F21C08091A0028230E8F0D2
:100D40008BEB93E06CE671E00E9475108BEB93E007
:100D500065E472E00E9475108BEB93E069E372E04A
:100D60000E9472106091100370E06F5F7F4F8BEBF9
:100D700093E04AE050E00E9453101F910F91FF90C2
:100D8000EF90DF90CF90BF90AF900895AF92BF9259
:100D9000CF92DF92EF92FF920F931F930E94650B09
:100DA000209120033091210340912203509123038D
:100DB000621B730B840B950B20910C0330E048EE03
:100DC00053E0F901E49F9001E59F300DF49F300D51
:100DD0001124442737FD4095542F62177307840769
:100DE000950708F418C180910B03813031F480918C
:100DF00014038F5F809313030EC0823061F461E0AF
:100E000070E080E090E029EC30E040E050E00E94AB
:100E1000F310609313036091130385E0689FB001A2
:100E2000112465506093180389E293E070E00E94FA
:100E30000A0B80930D036091180370E06F5F7F4F82
:100E400089E293E00E940A0B80930E0360911803DD
:100E500070E06E5F7F4F89E293E00E940A0B8093FF
:100E60000F036091180370E06D5F7F4F89E293E09C
:100E70000E940A0B8093100380910D038150809390
:100E80000703882321F483E060E070E006C06091EE
:100E90001A0370E0680F711D83E00E94070C8091B7
:100EA0000E03815080930803882321F485E060E0DD
:100EB00070E006C060911A0370E0680F711D85E054
:100EC0000E94070C80910F038150809309038823AF
:100ED00021F486E060E070E006C060911A0370E0E3
:100EE000680F711D86E00E94070C6091100361502D
:100EF00060930A03662331F484E293E069E04FEFE4
:100F000053E038C06F3731F484E293E069E040E0A9
:100F100050E030C000D000D070E080E090E020E4ED
:100F200032E44FE050E0EDB7FEB7218332834383D4
:100F3000548321E030E040E050E0FEE7EF2EF12C5A
:100F4000012D112DE0EAAE2EE6E8BE2EE1E0CE2E18
:100F5000D12C0E948810AB01BC010F900F900F9014
:100F60000F9084E293E00E940C0A84E293E069E02F
:100F700040E052E00E94830A8091A002833009F091
:100F800040C08BEB93E0609113034AE050E00E9475
:100F9000D00F8BEB93E064E272E00E9472108BEB57
:100FA00093E0609107034AE050E00E94D00F8BEB82
:100FB00093E064E272E00E9472108BEB93E0609128
:100FC00008034AE050E00E94D00F8BEB93E064E20C
:100FD00072E00E9472108BEB93E0609109034AE08B
:100FE00050E00E94D00F8BEB93E064E272E00E942D
:100FF00072108BEB93E0609110034AE050E00E9486
:10100000E20F0E94650B609320037093210380938D
:101010002203909323031F910F91FF90EF90DF9095
:10102000CF90BF90AF90089582EB92E066E672E0B9
:101030000E94B509882309F474C082EB92E069E646
:1010400072E00E94B509882309F46EC080911903EB
:10105000882309F069C00E94C7020895809119038E
:10106000882309F06AC00E94270608950E940C0593
:10107000089582EB92E06DE672E00E94B509882344
:1010800019F00E946B03089582EB92E061E772E031
:101090000E94B509882319F00E948304089582EB09
:1010A00092E065E772E00E94B509882319F00E947A
:1010B000EE01089582EB92E069E772E00E94B509C3
:1010C000882319F00E94D801089582EB92E06DE721
:1010D00072E00E94B509882319F00E942A0208953F
:1010E00082EB92E061E872E00E94B509882319F072
:1010F0000E946402089582EB92E065E872E00E942B
:10110000B509882319F00E940802089582EB92E045
:1011100069E872E00E94B509882319F00E94540121
:1011200008950E94E301089582EB92E064E972E081
:101130000E94B509882309F091CF82EB92E068E91B
:1011400072E00E94B509882309F493CF8FCF809174
:101150001603882341F48DE061E00E948D0C81E04C
:101160008093160308958DE060E00E948D0C10922C
:101170001603089509C08BEB93E00E94290EBC0171
:1011800082EB92E00E9449098BEB93E00E94F80DFC
:10119000892B89F70E94650B20911C0330911D0358
:1011A00040911E0350911F03621B730B840B950B20
:1011B0006A3F71058105910560F00E94A7080E94B1
:1011C000650B60931C0370931D0380931E03909323
:1011D0001F0380911903813011F40E94C6060895FF
:1011E0000F931F938DE061E00E94670C83E061E044
:1011F0000E94670C85E061E00E94670C86E061E078
:101200000E94670C8BEB93E040E855E260E070E0F1
:101210000E94720D82EB92E064E178E00E94450941
:1012200004E213E0C80140E251EA67E070E00E9486
:101230007B0AC80169E040E050E00FEF1FEF2FEF9D
:101240003FEF0E94AB0A89E293E060E074E00E9405
:101250000A0B80931A031F910F910895FC011282CB
:10126000118280E287831086E55BFF4F80E48193E3
:101270008FE38083EC54F040128610821482138234
:101280001682158281E081870895FC017283618353
:101290000895CF93DF93EC0118821616170684F594
:1012A0006A30710569F16D30710521F061157105C4
:1012B00039F110C08A85FE01E80FF11D13861A86E8
:1012C0001E821D8281E089878883CE010B969C83D4
:1012D0008B8316C08A85FE01E80FF11D63878F5F3F
:1012E0008A87C45BDF4F9881CC54D040891740F087
:1012F0001A8618821C821B821E821D8281E08987C9
:101300008881813029F4E981FA81309709F00995C3
:101310008881DF91CF910895CF93DF93EC0188818D
:101320008823F9F0813019F020E030E005C09E01FB
:10133000255F3F4F82E088838985882359F0BE016D
:10134000695F7F4FAE014B5F5F4FC9010E9415017E
:101350009C838B838B819C81892B19F0198681E07A
:1013600001C080E0DF91CF9108950F931F93CF9339
:10137000DF93EC018B010E948C09882351F06B8173
:101380007C81C8010E940C01009721F481E08987CB
:1013900002C001C080E0DF91CF911F910F910895AD
:1013A000CF93DF93EC010E948C09882319F420E08D
:1013B00030E007C081E089878B819C810E94EE002C
:1013C0009C01C901DF91CF9108951F920F920FB632
:1013D0000F9211242F933F934F935F936F937F93BB
:1013E0008F939F93AF93BF93EF93FF93E091270366
:1013F000F09128030995FF91EF91BF91AF919F91D3
:101400008F917F916F915F914F913F912F910F90AD
:101410000FBE0F901F901895FC01A3E0440F551FBD
:10142000661F771FAA95D1F7403080E0580781E00A
:10143000680780E0780714F481E010C033E0759508
:101440006795579547953A95D1F7403080E0580712
:1014500081E0680780E078071CF482E0828339C06D
:1014600023E075956795579547952A95D1F74030B4
:1014700080E0580781E0680780E0780714F483E093
:10148000EDCF92E075956795579547959A95D1F769
:10149000403080E0580781E0680780E0780714F466
:1014A00084E0DCCF82E075956795579547958A95DE
:1014B000D1F7403080E0580781E0680780E0780786
:1014C00014F485E0CBCF85E082834FEF5FEF60E0DF
:1014D00070E0518340835093870040938600809151
:1014E0008100887F80938100809181009281892B87
:1014F0008093810008951092800020E12093810064
:101500000E940C0A08951F93FC01162FBA01208136
:10151000318140E050E0882777FD8095982F0E9428
:101520001111BAE09695879577956795BA95D1F799
:10153000113011F0193029F47093890060938800FC
:1015400008C0123011F01A3021F470938B006093B0
:101550008A001F910895CF92DF92FF920F931F93FD
:10156000CF93DF93EC01F62E6A01101611061206D6
:10157000130624F4B901A8010E940C0A21E0F21616
:1015800019F089E0F81629F4219A8091800080688A
:101590000AC022E0F21619F08AE0F81631F4229A15
:1015A000809180008062809380002881398140E0B2
:1015B00050E0B601882777FD8095982F0E94111181
:1015C0001AE096958795779567951A95D1F721E05A
:1015D000F21619F029E0F21629F47093890060934D
:1015E00088000AC022E0F21619F02AE0F21621F46F
:1015F00070938B0060938A00809181009A81892B7F
:1016000080938100DF91CF911F910F91FF90DF9028
:10161000CF900895F999FECF72BD61BDF89A80B55B
:101620000895F999FECF1FBA72BD61BD40BD0FB6D6
:10163000F894FA9AF99A0FBE08951F920F920FB676
:101640000F9211242F933F938F939F93AF93BF9348
:1016500080912E0390912F03A0913003B09131031C
:10166000309132030196A11DB11D232F2D5F2D371F
:1016700020F02D570196A11DB11D209332038093B8
:101680002E0390932F03A0933003B09331038091E6
:101690002A0390912B03A0912C03B0912D03019666
:1016A000A11DB11D80932A0390932B03A0932C03BB
:1016B000B0932D03BF91AF919F918F913F912F9147
:1016C0000F900FBE0F901F9018958FB7F894209130
:1016D0002E0330912F0340913003509131038FBF7F
:1016E000B901CA0108959B01AC017FB7F8948091BC
:1016F0002A0390912B03A0912C03B0912D0366B582
:10170000A89B05C06F3F19F00196A11DB11D7FBFB9
:10171000BA2FA92F982F8827860F911DA11DB11DC3
:1017200062E0880F991FAA1FBB1F6A95D1F7BC0101
:101730002DC0FFB7F89480912A0390912B03A091BC
:101740002C03B0912D03E6B5A89B05C0EF3F19F01F
:101750000196A11DB11DFFBFBA2FA92F982F882771
:101760008E0F911DA11DB11DE2E0880F991FAA1FC8
:10177000BB1FEA95D1F7861B970B885E9340C8F292
:10178000215030404040504068517C4F2115310578
:101790004105510571F60895789484B5826084BD41
:1017A00084B5816084BD85B5826085BD85B5816065
:1017B00085BDEEE6F0E0808181608083E1E8F0E0C5
:1017C0001082808182608083808181608083E0E8F4
:1017D000F0E0808181608083E1EBF0E080818460D3
:1017E0008083E0EBF0E0808181608083EAE7F0E0D5
:1017F0008081846080838081826080838081816039
:1018000080838081806880831092C10008951F9337
:10181000CF93DF93182FEB0161E00E94670C2097B4
:1018200009F44AC0CF3FD10509F449C0E12FF0E0E7
:10183000E255FF4F84918330C1F0843028F4813029
:1018400051F08230B1F50CC0863019F1873049F182
:10185000843079F514C084B5806884BDC7BD33C0B9
:1018600084B5806284BDC8BD2EC080918000806830
:1018700080938000D0938900C093880024C0809119
:101880008000806280938000D0938B00C0938A0098
:101890001AC08091B00080688093B000C093B300FC
:1018A00012C08091B00080628093B000C093B400F9
:1018B0000AC0C038D1051CF4812F60E002C0812F1E
:1018C00061E00E948D0CDF91CF911F910895482F08
:1018D00050E0CA0186569F4FFC0124914A575F4F42
:1018E000FA0184918823C1F0E82FF0E0EE0FFF1F8A
:1018F000E859FF4FA591B491662341F49FB7F8943E
:101900008C91209582238C939FBF08959FB7F89464
:101910008C91822B8C939FBF0895482F50E0CA0171
:1019200082559F4FFC012491CA0186569F4FFC01AE
:1019300094914A575F4FFA013491332309F440C020
:10194000222351F1233071F0243028F42130A1F00A
:10195000223011F514C02630B1F02730C1F0243008
:10196000D9F404C0809180008F7703C080918000FB
:101970008F7D8093800010C084B58F7702C084B5BE
:101980008F7D84BD09C08091B0008F7703C08091A6
:10199000B0008F7D8093B000E32FF0E0EE0FFF1FCB
:1019A000EE58FF4FA591B4912FB7F894662321F418
:1019B0008C919095892302C08C91892B8C932FBF99
:1019C000089508951F920F920FB60F9211242F932E
:1019D0003F934F938F939F93EF93FF934091C60054
:1019E00020917303309174032F5F3F4F2F7330703A
:1019F00080917503909176032817390759F0E0918B
:101A00007303F0917403ED5CFC4F408330937403D7
:101A100020937303FF91EF919F918F914F913F918D
:101A20002F910F900FBE0F901F901895E091C70354
:101A3000F091C803E05CFF4F819191912081318149
:101A4000821B930B8F739070892B11F00E94E10C15
:101A500008951F920F920FB60F9211242F933F9368
:101A60004F935F936F937F938F939F93AF93BF93A6
:101A7000EF93FF932091B7033091B8038091B9039E
:101A80009091BA032817390731F48091C1008F7DF6
:101A90008093C10016C0E091B903F091BA03E958F0
:101AA000FC4F40818091B9039091BA03019660E4A4
:101AB00070E00E9430119093BA038093B903409371
:101AC000C600FF91EF91BF91AF919F918F917F9150
:101AD0006F915F914F913F912F910F900FBE0F909B
:101AE0001F901895AF92BF92DF92EF92FF920F93E3
:101AF0001F93CF93DF93EC017A018B01DD244030FB
:101B000081EE580780E0680780E0780711F0DD2457
:101B1000D39491E0A92EB12CEC89FD89DD2069F0E8
:101B2000C5010E8C02C0880F991F0A94E2F78083CA
:101B300060E079E08DE390E005C0108260E874E831
:101B40008EE190E0A80197010E944311215030409E
:101B500040405040569547953795279580E1203075
:101B6000380720F0DD2011F0DD24D6CFE889F9898F
:101B70003083EA89FB892083EE89FF89408121E057
:101B800030E0C9010A8C02C0880F991F0A94E2F75D
:101B9000482B4083EE89FF894081C9010B8C02C02C
:101BA000880F991F0A94E2F7482B4083EE89FF893A
:101BB0004081C9010C8C02C0880F991F0A94E2F77A
:101BC000482B4083EE89FF8980810D8C02C0220F53
:101BD000331F0A94E2F7209528232083DF91CF91C9
:101BE0001F910F91FF90EF90DF90BF90AF900895FD
:101BF000DC011C96ED91FC911D97E05CFF4F21915B
:101C0000319180819181281B390B2F733070C9016C
:101C10000895DC011C96ED91FC911D97E05CFF4F4F
:101C200020813181E054F040DF01AE5BBF4F8D91E8
:101C30009C9111972817390719F42FEF3FEF07C030
:101C40008D919C91E80FF91F8081282F30E0C90108
:101C50000895DC011C96ED91FC911D97E05CFF4F0F
:101C600020813181E054F040DF01AE5BBF4F8D91A8
:101C70009C9111972817390719F42FEF3FEF10C0E7
:101C80008D919C911197E80FF91F20818D919C9166
:101C9000119701968F73907011969C938E9330E0FC
:101CA000C9010895FC0186859785DC01A05CBF4FC2
:101CB000FC01EE5BFF4F2D913C911197808191814A
:101CC00028173907C1F70895CF93DF93EC01462F0A
:101CD000EE85FF85E05CFF4F80819181E054F0400C
:101CE000019660E470E00E9430119C01DF01AE5B60
:101CF000BF4F8D919C91119728173907D1F3E05C64
:101D0000FF4F80819181E054F040E80FF91F40833C
:101D1000EE85FF85E05CFF4F31832083EE89FF89EC
:101D2000208181E090E00D8C02C0880F991F0A94F9
:101D3000E2F7282B208381E090E0DF91CF91089596
:101D40001092BE031092BD0388EE93E0A0E0B0E0D5
:101D50008093BF039093C003A093C103B093C203C9
:101D600086EA92E09093BC038093BB0383E393E005
:101D70009093C8038093C70387E793E09093CA03C7
:101D80008093C90385EC90E09093CC038093CB03C0
:101D900084EC90E09093CE038093CD0380EC90E0B0
:101DA0009093D0038093CF0381EC90E09093D20383
:101DB0008093D10386EC90E09093D4038093D30377
:101DC00084E08093D50383E08093D60387E08093FB
:101DD000D70385E08093D80381E08093D9030895E9
:101DE000CF93DF930E94CC0B0E94F008C6E1DDE0A8
:101DF0000E94BA082097E1F30E94160DF9CFCF9206
:101E0000DF92EF92FF920F931F93CF93DF937C01AA
:101E10006B018A01C0E0D0E00FC0D6016D916D0169
:101E2000D701ED91FC910190F081E02DC70109955A
:101E3000C80FD91F015010400115110571F7CE01CF
:101E4000DF91CF911F910F91FF90EF90DF90CF9096
:101E50000895EF92FF920F931F938C01DC01ED9197
:101E6000FC910190F081E02D6DE009957C01D80195
:101E7000ED91FC910190F081E02DC8016AE0099597
:101E80009C012E0D3F1DC9011F910F91FF90EF90F6
:101E90000895CF93DF93DB010D900020E9F71197B0
:101EA000A61BB70BEC01E881F9810280F381E02DDC
:101EB000AD010995DF91CF9108954F925F927F9286
:101EC0008F929F92AF92BF92CF92DF92EF92FF924A
:101ED0000F931F93DF93CF93CDB7DEB7A1970FB6C4
:101EE000F894DEBF0FBECDBF2C01742ECB01223083
:101EF00008F42AE019A231E2C32ED12CCC0EDD1E4B
:101F0000822E9924AA24BB24672D752FA501940144
:101F10000E94431179018A01C801B701A50194010A
:101F20000E941111472D461B0894C108D1084A3060
:101F300014F4405D01C0495CF6014083E114F104F2
:101F40000105110521F07E2C5F2DC801DDCFC201F6
:101F5000B6010E94490FA1960FB6F894DEBF0FBEDE
:101F6000CDBFCF91DF911F910F91FF90EF90DF9048
:101F7000CF90BF90AF909F908F907F905F904F9049
:101F80000895DC012115310541F4ED91FC9101909A
:101F9000F081E02D642F099508950E945D0F08954A
:101FA000EF92FF920F931F939A01E62EFF2400E019
:101FB00010E0B801A7010E94C10F1F910F91FF907F
:101FC000EF900895CF92DF92EF92FF920F931F93BD
:101FD0006C01E62E9A01FF2400E010E0B801A70191
:101FE0000E94C10F8C01C6010E94290F080F191F02
:101FF000C8011F910F91FF90EF90DF90CF9008954F
:10200000CF92DF92EF92FF920F931F93CF93DF93C4
:10201000EC016A017B012115310541F4E881F98168
:102020000190F081E02D642F09951FC02A30310501
:10203000D1F477FF17C0E881F9810190F081E02D9C
:102040006DE209958C0144275527BA014C195D09A9
:102050006E097F09CE012AE00E945D0F9801280FCA
:10206000391F04C02AE00E945D0F9C01C901DF9165
:10207000CF911F910F91FF90EF90DF90CF90089537
:10208000EF92FF920F931F937B019A010027F7FCB9
:102090000095102FB801A7010E9400101F910F9109
:1020A000FF90EF900895CF92DF92EF92FF920F93FF
:1020B0001F936C017B019A010027F7FC0095102FFC
:1020C000B801A7010E9400108C01C6010E94290FCF
:1020D000080F191FC8011F910F91FF90EF90DF901B
:1020E000CF9008950E94490F0895EF92FF920F93A9
:1020F0001F937C010E94490F8C01C7010E94290F88
:10210000080F191FC8011F910F91FF90EF900895BC
:102110002F923F924F925F926F927F928F929F92F7
:10212000AF92BF92CF92DF92EF92FF920F931F93E5
:10213000DF93CF93CDB7DEB73B014C0119012A01E4
:102140006D897E898F89988D6A197B098C099D0913
:10215000621A730A840A950AA40193010E9411115C
:10216000E218F30804091509A80197010E946511F6
:102170002A0D3B1D4C1D5D1DB901CA01CF91DF9198
:102180001F910F91FF90EF90DF90CF90BF90AF9095
:102190009F908F907F906F905F904F903F902F9087
:1021A0000895EF92FF920F931F937B018C016115AD
:1021B00071058105910529F420E030E040E050E010
:1021C0000BC00E94E000A80197010E946511AC01BC
:1021D000CB01DA019C01AD01B901CA011F910F9138
:1021E000FF90EF900895EF92FF920F931F937B0162
:1021F0008C01621773078407950764F4261B370B5D
:10220000480B590BCA01B9010E94D110E60EF71E06
:10221000081F191FB701C8011F910F91FF90EF9080
:102220000895629FD001739FF001829FE00DF11D20
:10223000649FE00DF11D929FF00D839FF00D749F40
:10224000F00D659FF00D9927729FB00DE11DF91FEC
:10225000639FB00DE11DF91FBD01CF011124089549
:1022600097FB092E07260AD077FD04D049D006D067
:1022700000201AF4709561957F4F0895F6F79095B8
:1022800081959F4F0895A1E21A2EAA1BBB1BFD0149
:102290000DC0AA1FBB1FEE1FFF1FA217B307E40745
:1022A000F50720F0A21BB30BE40BF50B661F771F9D
:1022B000881F991F1A9469F760957095809590957D
:1022C0009B01AC01BD01CF01089597FB092E0526A6
:1022D0000ED057FD04D0D7DF0AD0001C38F450953B
:1022E0004095309521953F4F4F4F5F4F0895F6F73A
:1022F00090958095709561957F4F8F4F9F4F089572
:10230000AA1BBB1B51E107C0AA1FBB1FA617B7071B
:1023100010F0A61BB70B881F991F5A95A9F7809537
:102320009095BC01CD010895EE0FFF1F0590F4912B
:10233000E02D09942F923F924F925F926F927F927D
:102340008F929F92AF92BF92CF92DF92EF92FF92C5
:102350000F931F93CF93DF93CDB7DEB7CA1BDB0B71
:102360000FB6F894DEBF0FBECDBF09942A88398816
:1023700048885F846E847D848C849B84AA84B9841D
:10238000C884DF80EE80FD800C811B81AA81B98129
:10239000CE0FD11D0FB6F894DEBF0FBECDBFED013D
:0623A0000895F894FFCF40
:1023A6002A2A2A646F6E652A2A2A00507265736586
:1023B60074204D6F64652053746F707065642E2EA3
:1023C6002E004D657373616765204572726F7200EA
:1023D600507265736574204D6F646520416374693E
:1023E60076652E2E2E006E6577204D6F746F7243C4
:1023F6006F7272656374696F6E3A006E657720441A
:1024060065627567204C6576656C3A0056616C7539
:1024160065204572726F72004465627567204C656F
:1024260076656C206D7573742062652062657477BD
:1024360065656E20312D3300596F75722056616CBB
:1024460075653A003A0021004F4B20004D6F746FBE
:10245600724E723A0053706565643A005370656552
:1024660064206D7573742062652062657477656596
:102476006E20312D31323800596F757220537065D8
:1024860065643A004D6F746F724E72206D75737489
:10249600206265206265747765656E20312D330094
:1024A60050724E723A0021204D313A0021204D32B1
:1024B6003A0021204D333A0021204C415345523AEF
:1024C600004F4B0020004572726F7200596F757293
:1024D6002056616C7565733A006C6173657256615E
:1024E6006C75653A006C6173657256616C75652032
:1024F6006D757374206265206265747765656E20FC
:10250600312D31323800415400534D53004C504E5A
:102516000052504E0052504D0053504D0053444C03
:102526000052454500534D4300696E697445455058
:10253600726F6D00534C5600535056000100000058
:10254600030300000000640EFF0EF80D290E090EAD
:02255600520E23
:00000001FF
